{
  "@yield-protocol/utils/contracts/access/Delegable.sol": {
    "Delegable": {
      "abi": [
        {
          "inputs": [],
          "stateMutability": "nonpayable",
          "type": "constructor"
        },
        {
          "anonymous": false,
          "inputs": [
            {
              "indexed": true,
              "internalType": "address",
              "name": "user",
              "type": "address"
            },
            {
              "indexed": true,
              "internalType": "address",
              "name": "delegate",
              "type": "address"
            },
            {
              "indexed": false,
              "internalType": "bool",
              "name": "enabled",
              "type": "bool"
            }
          ],
          "name": "Delegate",
          "type": "event"
        },
        {
          "inputs": [],
          "name": "DELEGABLE_DOMAIN",
          "outputs": [
            {
              "internalType": "bytes32",
              "name": "",
              "type": "bytes32"
            }
          ],
          "stateMutability": "view",
          "type": "function"
        },
        {
          "inputs": [],
          "name": "SIGNATURE_TYPEHASH",
          "outputs": [
            {
              "internalType": "bytes32",
              "name": "",
              "type": "bytes32"
            }
          ],
          "stateMutability": "view",
          "type": "function"
        },
        {
          "inputs": [
            {
              "internalType": "address",
              "name": "delegate",
              "type": "address"
            }
          ],
          "name": "addDelegate",
          "outputs": [],
          "stateMutability": "nonpayable",
          "type": "function"
        },
        {
          "inputs": [
            {
              "internalType": "address",
              "name": "user",
              "type": "address"
            },
            {
              "internalType": "address",
              "name": "delegate",
              "type": "address"
            },
            {
              "internalType": "uint256",
              "name": "deadline",
              "type": "uint256"
            },
            {
              "internalType": "uint8",
              "name": "v",
              "type": "uint8"
            },
            {
              "internalType": "bytes32",
              "name": "r",
              "type": "bytes32"
            },
            {
              "internalType": "bytes32",
              "name": "s",
              "type": "bytes32"
            }
          ],
          "name": "addDelegateBySignature",
          "outputs": [],
          "stateMutability": "nonpayable",
          "type": "function"
        },
        {
          "inputs": [
            {
              "internalType": "address",
              "name": "",
              "type": "address"
            },
            {
              "internalType": "address",
              "name": "",
              "type": "address"
            }
          ],
          "name": "delegated",
          "outputs": [
            {
              "internalType": "bool",
              "name": "",
              "type": "bool"
            }
          ],
          "stateMutability": "view",
          "type": "function"
        },
        {
          "inputs": [
            {
              "internalType": "address",
              "name": "delegate",
              "type": "address"
            }
          ],
          "name": "revokeDelegate",
          "outputs": [],
          "stateMutability": "nonpayable",
          "type": "function"
        },
        {
          "inputs": [
            {
              "internalType": "address",
              "name": "",
              "type": "address"
            }
          ],
          "name": "signatureCount",
          "outputs": [
            {
              "internalType": "uint256",
              "name": "",
              "type": "uint256"
            }
          ],
          "stateMutability": "view",
          "type": "function"
        }
      ],
      "evm": {
        "bytecode": {
          "linkReferences": {},
          "object": "60c06040527f0d077601844dd17f704bafff948229d27f33b57445915754dfe3d095fda2beb760805234801561003457600080fd5b50604051469080605261092082396040805191829003605201822082820182526005835264165a595b1960da1b6020938401528151808301835260018152603160f81b908401528151808401919091527f0dc8618f4925c4319195a39ada16304f511bf885ff9f3d63bc6b0f3979e46fb6818301527fc89efdaa54c0f20c7adf612882df0950f5a951637e0307cdcb4c672f298b8bc6606082015260808101949094523060a08086019190915281518086038201815260c0909501909152835193909101929092209091525060805160a0516107f361012d6000398061030a52806104c852508061028a52806104fe52506107f36000f3fe608060405234801561001057600080fd5b506004361061007d5760003560e01c8063c0bd65d71161005b578063c0bd65d714610129578063e71bdf4114610131578063f6bcbd3114610164578063fa352c00146101b35761007d565b80631a28ff0514610082578063459e414f146100dc578063b5d832fe146100f6575b600080fd5b6100da600480360360c081101561009857600080fd5b5073ffffffffffffffffffffffffffffffffffffffff813581169160208101359091169060408101359060ff6060820135169060808101359060a001356101e6565b005b6100e46104c6565b60408051918252519081900360200190f35b6100e46004803603602081101561010c57600080fd5b503573ffffffffffffffffffffffffffffffffffffffff166104ea565b6100e46104fc565b6100da6004803603602081101561014757600080fd5b503573ffffffffffffffffffffffffffffffffffffffff16610520565b61019f6004803603604081101561017a57600080fd5b5073ffffffffffffffffffffffffffffffffffffffff8135811691602001351661052d565b604080519115158252519081900360200190f35b6100da600480360360208110156101c957600080fd5b503573ffffffffffffffffffffffffffffffffffffffff1661054d565b4284101561025557604080517f08c379a000000000000000000000000000000000000000000000000000000000815260206004820152601c60248201527f44656c656761626c653a205369676e6174757265206578706972656400000000604482015290519081900360640190fd5b73ffffffffffffffffffffffffffffffffffffffff8087166000818152602081815260408083208054600180820190925582517f00000000000000000000000000000000000000000000000000000000000000008186015280840196909652958b166060860152608085019590955260a08085018a90528151808603909101815260c0850182528051908301207f190100000000000000000000000000000000000000000000000000000000000060e08601527f000000000000000000000000000000000000000000000000000000000000000060e286015261010280860182905282518087039091018152610122860180845281519185019190912090859052610142860180845281905260ff8a1661016287015261018286018990526101a2860188905291519095919491926101c28084019391927fffffffffffffffffffffffffffffffffffffffffffffffffffffffffffffffe081019281900390910190855afa1580156103cb573d6000803e3d6000fd5b50506040517fffffffffffffffffffffffffffffffffffffffffffffffffffffffffffffffe0015191505073ffffffffffffffffffffffffffffffffffffffff81161580159061044657508873ffffffffffffffffffffffffffffffffffffffff168173ffffffffffffffffffffffffffffffffffffffff16145b6104b157604080517f08c379a000000000000000000000000000000000000000000000000000000000815260206004820152601c60248201527f44656c656761626c653a20496e76616c6964207369676e617475726500000000604482015290519081900360640190fd5b6104bb8989610557565b505050505050505050565b7f000000000000000000000000000000000000000000000000000000000000000081565b60006020819052908152604090205481565b7f000000000000000000000000000000000000000000000000000000000000000081565b61052a3382610557565b50565b600160209081526000928352604080842090915290825290205460ff1681565b61052a338261068d565b73ffffffffffffffffffffffffffffffffffffffff80831660009081526001602090815260408083209385168352929052205460ff16156105f957604080517f08c379a000000000000000000000000000000000000000000000000000000000815260206004820152601c60248201527f44656c656761626c653a20416c72656164792064656c65676174656400000000604482015290519081900360640190fd5b73ffffffffffffffffffffffffffffffffffffffff80831660008181526001602081815260408084209587168085529582529283902080547fffffffffffffffffffffffffffffffffffffffffffffffffffffffffffffff001683179055825191825291517f045b0fef01772d2fbba53dbd38c9777806eac0865b00af43abcfbcaf50da9206929181900390910190a35050565b73ffffffffffffffffffffffffffffffffffffffff80831660009081526001602090815260408083209385168352929052205460ff1661072e57604080517f08c379a000000000000000000000000000000000000000000000000000000000815260206004820152601e60248201527f44656c656761626c653a20416c726561647920756e64656c6567617465640000604482015290519081900360640190fd5b73ffffffffffffffffffffffffffffffffffffffff808316600081815260016020908152604080832094861680845294825280832080547fffffffffffffffffffffffffffffffffffffffffffffffffffffffffffffff001690558051928352517f045b0fef01772d2fbba53dbd38c9777806eac0865b00af43abcfbcaf50da92069281900390910190a3505056fea2646970667358221220f386bfca889b7aed65a989609febb0a860a1e83228af02a06ded6f8debf5e1cf64736f6c634300060a0033454950373132446f6d61696e28737472696e67206e616d652c737472696e672076657273696f6e2c75696e7432353620636861696e49642c6164647265737320766572696679696e67436f6e747261637429",
          "opcodes": "PUSH1 0xC0 PUSH1 0x40 MSTORE PUSH32 0xD077601844DD17F704BAFFF948229D27F33B57445915754DFE3D095FDA2BEB7 PUSH1 0x80 MSTORE CALLVALUE DUP1 ISZERO PUSH2 0x34 JUMPI PUSH1 0x0 DUP1 REVERT JUMPDEST POP PUSH1 0x40 MLOAD CHAINID SWAP1 DUP1 PUSH1 0x52 PUSH2 0x920 DUP3 CODECOPY PUSH1 0x40 DUP1 MLOAD SWAP2 DUP3 SWAP1 SUB PUSH1 0x52 ADD DUP3 KECCAK256 DUP3 DUP3 ADD DUP3 MSTORE PUSH1 0x5 DUP4 MSTORE PUSH5 0x165A595B19 PUSH1 0xDA SHL PUSH1 0x20 SWAP4 DUP5 ADD MSTORE DUP2 MLOAD DUP1 DUP4 ADD DUP4 MSTORE PUSH1 0x1 DUP2 MSTORE PUSH1 0x31 PUSH1 0xF8 SHL SWAP1 DUP5 ADD MSTORE DUP2 MLOAD DUP1 DUP5 ADD SWAP2 SWAP1 SWAP2 MSTORE PUSH32 0xDC8618F4925C4319195A39ADA16304F511BF885FF9F3D63BC6B0F3979E46FB6 DUP2 DUP4 ADD MSTORE PUSH32 0xC89EFDAA54C0F20C7ADF612882DF0950F5A951637E0307CDCB4C672F298B8BC6 PUSH1 0x60 DUP3 ADD MSTORE PUSH1 0x80 DUP2 ADD SWAP5 SWAP1 SWAP5 MSTORE ADDRESS PUSH1 0xA0 DUP1 DUP7 ADD SWAP2 SWAP1 SWAP2 MSTORE DUP2 MLOAD DUP1 DUP7 SUB DUP3 ADD DUP2 MSTORE PUSH1 0xC0 SWAP1 SWAP6 ADD SWAP1 SWAP2 MSTORE DUP4 MLOAD SWAP4 SWAP1 SWAP2 ADD SWAP3 SWAP1 SWAP3 KECCAK256 SWAP1 SWAP2 MSTORE POP PUSH1 0x80 MLOAD PUSH1 0xA0 MLOAD PUSH2 0x7F3 PUSH2 0x12D PUSH1 0x0 CODECOPY DUP1 PUSH2 0x30A MSTORE DUP1 PUSH2 0x4C8 MSTORE POP DUP1 PUSH2 0x28A MSTORE DUP1 PUSH2 0x4FE MSTORE POP PUSH2 0x7F3 PUSH1 0x0 RETURN INVALID PUSH1 0x80 PUSH1 0x40 MSTORE CALLVALUE DUP1 ISZERO PUSH2 0x10 JUMPI PUSH1 0x0 DUP1 REVERT JUMPDEST POP PUSH1 0x4 CALLDATASIZE LT PUSH2 0x7D JUMPI PUSH1 0x0 CALLDATALOAD PUSH1 0xE0 SHR DUP1 PUSH4 0xC0BD65D7 GT PUSH2 0x5B JUMPI DUP1 PUSH4 0xC0BD65D7 EQ PUSH2 0x129 JUMPI DUP1 PUSH4 0xE71BDF41 EQ PUSH2 0x131 JUMPI DUP1 PUSH4 0xF6BCBD31 EQ PUSH2 0x164 JUMPI DUP1 PUSH4 0xFA352C00 EQ PUSH2 0x1B3 JUMPI PUSH2 0x7D JUMP JUMPDEST DUP1 PUSH4 0x1A28FF05 EQ PUSH2 0x82 JUMPI DUP1 PUSH4 0x459E414F EQ PUSH2 0xDC JUMPI DUP1 PUSH4 0xB5D832FE EQ PUSH2 0xF6 JUMPI JUMPDEST PUSH1 0x0 DUP1 REVERT JUMPDEST PUSH2 0xDA PUSH1 0x4 DUP1 CALLDATASIZE SUB PUSH1 0xC0 DUP2 LT ISZERO PUSH2 0x98 JUMPI PUSH1 0x0 DUP1 REVERT JUMPDEST POP PUSH20 0xFFFFFFFFFFFFFFFFFFFFFFFFFFFFFFFFFFFFFFFF DUP2 CALLDATALOAD DUP2 AND SWAP2 PUSH1 0x20 DUP2 ADD CALLDATALOAD SWAP1 SWAP2 AND SWAP1 PUSH1 0x40 DUP2 ADD CALLDATALOAD SWAP1 PUSH1 0xFF PUSH1 0x60 DUP3 ADD CALLDATALOAD AND SWAP1 PUSH1 0x80 DUP2 ADD CALLDATALOAD SWAP1 PUSH1 0xA0 ADD CALLDATALOAD PUSH2 0x1E6 JUMP JUMPDEST STOP JUMPDEST PUSH2 0xE4 PUSH2 0x4C6 JUMP JUMPDEST PUSH1 0x40 DUP1 MLOAD SWAP2 DUP3 MSTORE MLOAD SWAP1 DUP2 SWAP1 SUB PUSH1 0x20 ADD SWAP1 RETURN JUMPDEST PUSH2 0xE4 PUSH1 0x4 DUP1 CALLDATASIZE SUB PUSH1 0x20 DUP2 LT ISZERO PUSH2 0x10C JUMPI PUSH1 0x0 DUP1 REVERT JUMPDEST POP CALLDATALOAD PUSH20 0xFFFFFFFFFFFFFFFFFFFFFFFFFFFFFFFFFFFFFFFF AND PUSH2 0x4EA JUMP JUMPDEST PUSH2 0xE4 PUSH2 0x4FC JUMP JUMPDEST PUSH2 0xDA PUSH1 0x4 DUP1 CALLDATASIZE SUB PUSH1 0x20 DUP2 LT ISZERO PUSH2 0x147 JUMPI PUSH1 0x0 DUP1 REVERT JUMPDEST POP CALLDATALOAD PUSH20 0xFFFFFFFFFFFFFFFFFFFFFFFFFFFFFFFFFFFFFFFF AND PUSH2 0x520 JUMP JUMPDEST PUSH2 0x19F PUSH1 0x4 DUP1 CALLDATASIZE SUB PUSH1 0x40 DUP2 LT ISZERO PUSH2 0x17A JUMPI PUSH1 0x0 DUP1 REVERT JUMPDEST POP PUSH20 0xFFFFFFFFFFFFFFFFFFFFFFFFFFFFFFFFFFFFFFFF DUP2 CALLDATALOAD DUP2 AND SWAP2 PUSH1 0x20 ADD CALLDATALOAD AND PUSH2 0x52D JUMP JUMPDEST PUSH1 0x40 DUP1 MLOAD SWAP2 ISZERO ISZERO DUP3 MSTORE MLOAD SWAP1 DUP2 SWAP1 SUB PUSH1 0x20 ADD SWAP1 RETURN JUMPDEST PUSH2 0xDA PUSH1 0x4 DUP1 CALLDATASIZE SUB PUSH1 0x20 DUP2 LT ISZERO PUSH2 0x1C9 JUMPI PUSH1 0x0 DUP1 REVERT JUMPDEST POP CALLDATALOAD PUSH20 0xFFFFFFFFFFFFFFFFFFFFFFFFFFFFFFFFFFFFFFFF AND PUSH2 0x54D JUMP JUMPDEST TIMESTAMP DUP5 LT ISZERO PUSH2 0x255 JUMPI PUSH1 0x40 DUP1 MLOAD PUSH32 0x8C379A000000000000000000000000000000000000000000000000000000000 DUP2 MSTORE PUSH1 0x20 PUSH1 0x4 DUP3 ADD MSTORE PUSH1 0x1C PUSH1 0x24 DUP3 ADD MSTORE PUSH32 0x44656C656761626C653A205369676E6174757265206578706972656400000000 PUSH1 0x44 DUP3 ADD MSTORE SWAP1 MLOAD SWAP1 DUP2 SWAP1 SUB PUSH1 0x64 ADD SWAP1 REVERT JUMPDEST PUSH20 0xFFFFFFFFFFFFFFFFFFFFFFFFFFFFFFFFFFFFFFFF DUP1 DUP8 AND PUSH1 0x0 DUP2 DUP2 MSTORE PUSH1 0x20 DUP2 DUP2 MSTORE PUSH1 0x40 DUP1 DUP4 KECCAK256 DUP1 SLOAD PUSH1 0x1 DUP1 DUP3 ADD SWAP1 SWAP3 SSTORE DUP3 MLOAD PUSH32 0x0 DUP2 DUP7 ADD MSTORE DUP1 DUP5 ADD SWAP7 SWAP1 SWAP7 MSTORE SWAP6 DUP12 AND PUSH1 0x60 DUP7 ADD MSTORE PUSH1 0x80 DUP6 ADD SWAP6 SWAP1 SWAP6 MSTORE PUSH1 0xA0 DUP1 DUP6 ADD DUP11 SWAP1 MSTORE DUP2 MLOAD DUP1 DUP7 SUB SWAP1 SWAP2 ADD DUP2 MSTORE PUSH1 0xC0 DUP6 ADD DUP3 MSTORE DUP1 MLOAD SWAP1 DUP4 ADD KECCAK256 PUSH32 0x1901000000000000000000000000000000000000000000000000000000000000 PUSH1 0xE0 DUP7 ADD MSTORE PUSH32 0x0 PUSH1 0xE2 DUP7 ADD MSTORE PUSH2 0x102 DUP1 DUP7 ADD DUP3 SWAP1 MSTORE DUP3 MLOAD DUP1 DUP8 SUB SWAP1 SWAP2 ADD DUP2 MSTORE PUSH2 0x122 DUP7 ADD DUP1 DUP5 MSTORE DUP2 MLOAD SWAP2 DUP6 ADD SWAP2 SWAP1 SWAP2 KECCAK256 SWAP1 DUP6 SWAP1 MSTORE PUSH2 0x142 DUP7 ADD DUP1 DUP5 MSTORE DUP2 SWAP1 MSTORE PUSH1 0xFF DUP11 AND PUSH2 0x162 DUP8 ADD MSTORE PUSH2 0x182 DUP7 ADD DUP10 SWAP1 MSTORE PUSH2 0x1A2 DUP7 ADD DUP9 SWAP1 MSTORE SWAP2 MLOAD SWAP1 SWAP6 SWAP2 SWAP5 SWAP2 SWAP3 PUSH2 0x1C2 DUP1 DUP5 ADD SWAP4 SWAP2 SWAP3 PUSH32 0xFFFFFFFFFFFFFFFFFFFFFFFFFFFFFFFFFFFFFFFFFFFFFFFFFFFFFFFFFFFFFFE0 DUP2 ADD SWAP3 DUP2 SWAP1 SUB SWAP1 SWAP2 ADD SWAP1 DUP6 GAS STATICCALL ISZERO DUP1 ISZERO PUSH2 0x3CB JUMPI RETURNDATASIZE PUSH1 0x0 DUP1 RETURNDATACOPY RETURNDATASIZE PUSH1 0x0 REVERT JUMPDEST POP POP PUSH1 0x40 MLOAD PUSH32 0xFFFFFFFFFFFFFFFFFFFFFFFFFFFFFFFFFFFFFFFFFFFFFFFFFFFFFFFFFFFFFFE0 ADD MLOAD SWAP2 POP POP PUSH20 0xFFFFFFFFFFFFFFFFFFFFFFFFFFFFFFFFFFFFFFFF DUP2 AND ISZERO DUP1 ISZERO SWAP1 PUSH2 0x446 JUMPI POP DUP9 PUSH20 0xFFFFFFFFFFFFFFFFFFFFFFFFFFFFFFFFFFFFFFFF AND DUP2 PUSH20 0xFFFFFFFFFFFFFFFFFFFFFFFFFFFFFFFFFFFFFFFF AND EQ JUMPDEST PUSH2 0x4B1 JUMPI PUSH1 0x40 DUP1 MLOAD PUSH32 0x8C379A000000000000000000000000000000000000000000000000000000000 DUP2 MSTORE PUSH1 0x20 PUSH1 0x4 DUP3 ADD MSTORE PUSH1 0x1C PUSH1 0x24 DUP3 ADD MSTORE PUSH32 0x44656C656761626C653A20496E76616C6964207369676E617475726500000000 PUSH1 0x44 DUP3 ADD MSTORE SWAP1 MLOAD SWAP1 DUP2 SWAP1 SUB PUSH1 0x64 ADD SWAP1 REVERT JUMPDEST PUSH2 0x4BB DUP10 DUP10 PUSH2 0x557 JUMP JUMPDEST POP POP POP POP POP POP POP POP POP JUMP JUMPDEST PUSH32 0x0 DUP2 JUMP JUMPDEST PUSH1 0x0 PUSH1 0x20 DUP2 SWAP1 MSTORE SWAP1 DUP2 MSTORE PUSH1 0x40 SWAP1 KECCAK256 SLOAD DUP2 JUMP JUMPDEST PUSH32 0x0 DUP2 JUMP JUMPDEST PUSH2 0x52A CALLER DUP3 PUSH2 0x557 JUMP JUMPDEST POP JUMP JUMPDEST PUSH1 0x1 PUSH1 0x20 SWAP1 DUP2 MSTORE PUSH1 0x0 SWAP3 DUP4 MSTORE PUSH1 0x40 DUP1 DUP5 KECCAK256 SWAP1 SWAP2 MSTORE SWAP1 DUP3 MSTORE SWAP1 KECCAK256 SLOAD PUSH1 0xFF AND DUP2 JUMP JUMPDEST PUSH2 0x52A CALLER DUP3 PUSH2 0x68D JUMP JUMPDEST PUSH20 0xFFFFFFFFFFFFFFFFFFFFFFFFFFFFFFFFFFFFFFFF DUP1 DUP4 AND PUSH1 0x0 SWAP1 DUP2 MSTORE PUSH1 0x1 PUSH1 0x20 SWAP1 DUP2 MSTORE PUSH1 0x40 DUP1 DUP4 KECCAK256 SWAP4 DUP6 AND DUP4 MSTORE SWAP3 SWAP1 MSTORE KECCAK256 SLOAD PUSH1 0xFF AND ISZERO PUSH2 0x5F9 JUMPI PUSH1 0x40 DUP1 MLOAD PUSH32 0x8C379A000000000000000000000000000000000000000000000000000000000 DUP2 MSTORE PUSH1 0x20 PUSH1 0x4 DUP3 ADD MSTORE PUSH1 0x1C PUSH1 0x24 DUP3 ADD MSTORE PUSH32 0x44656C656761626C653A20416C72656164792064656C65676174656400000000 PUSH1 0x44 DUP3 ADD MSTORE SWAP1 MLOAD SWAP1 DUP2 SWAP1 SUB PUSH1 0x64 ADD SWAP1 REVERT JUMPDEST PUSH20 0xFFFFFFFFFFFFFFFFFFFFFFFFFFFFFFFFFFFFFFFF DUP1 DUP4 AND PUSH1 0x0 DUP2 DUP2 MSTORE PUSH1 0x1 PUSH1 0x20 DUP2 DUP2 MSTORE PUSH1 0x40 DUP1 DUP5 KECCAK256 SWAP6 DUP8 AND DUP1 DUP6 MSTORE SWAP6 DUP3 MSTORE SWAP3 DUP4 SWAP1 KECCAK256 DUP1 SLOAD PUSH32 0xFFFFFFFFFFFFFFFFFFFFFFFFFFFFFFFFFFFFFFFFFFFFFFFFFFFFFFFFFFFFFF00 AND DUP4 OR SWAP1 SSTORE DUP3 MLOAD SWAP2 DUP3 MSTORE SWAP2 MLOAD PUSH32 0x45B0FEF01772D2FBBA53DBD38C9777806EAC0865B00AF43ABCFBCAF50DA9206 SWAP3 SWAP2 DUP2 SWAP1 SUB SWAP1 SWAP2 ADD SWAP1 LOG3 POP POP JUMP JUMPDEST PUSH20 0xFFFFFFFFFFFFFFFFFFFFFFFFFFFFFFFFFFFFFFFF DUP1 DUP4 AND PUSH1 0x0 SWAP1 DUP2 MSTORE PUSH1 0x1 PUSH1 0x20 SWAP1 DUP2 MSTORE PUSH1 0x40 DUP1 DUP4 KECCAK256 SWAP4 DUP6 AND DUP4 MSTORE SWAP3 SWAP1 MSTORE KECCAK256 SLOAD PUSH1 0xFF AND PUSH2 0x72E JUMPI PUSH1 0x40 DUP1 MLOAD PUSH32 0x8C379A000000000000000000000000000000000000000000000000000000000 DUP2 MSTORE PUSH1 0x20 PUSH1 0x4 DUP3 ADD MSTORE PUSH1 0x1E PUSH1 0x24 DUP3 ADD MSTORE PUSH32 0x44656C656761626C653A20416C726561647920756E64656C6567617465640000 PUSH1 0x44 DUP3 ADD MSTORE SWAP1 MLOAD SWAP1 DUP2 SWAP1 SUB PUSH1 0x64 ADD SWAP1 REVERT JUMPDEST PUSH20 0xFFFFFFFFFFFFFFFFFFFFFFFFFFFFFFFFFFFFFFFF DUP1 DUP4 AND PUSH1 0x0 DUP2 DUP2 MSTORE PUSH1 0x1 PUSH1 0x20 SWAP1 DUP2 MSTORE PUSH1 0x40 DUP1 DUP4 KECCAK256 SWAP5 DUP7 AND DUP1 DUP5 MSTORE SWAP5 DUP3 MSTORE DUP1 DUP4 KECCAK256 DUP1 SLOAD PUSH32 0xFFFFFFFFFFFFFFFFFFFFFFFFFFFFFFFFFFFFFFFFFFFFFFFFFFFFFFFFFFFFFF00 AND SWAP1 SSTORE DUP1 MLOAD SWAP3 DUP4 MSTORE MLOAD PUSH32 0x45B0FEF01772D2FBBA53DBD38C9777806EAC0865B00AF43ABCFBCAF50DA9206 SWAP3 DUP2 SWAP1 SUB SWAP1 SWAP2 ADD SWAP1 LOG3 POP POP JUMP INVALID LOG2 PUSH5 0x6970667358 0x22 SLT KECCAK256 RETURN DUP7 0xBF 0xCA DUP9 SWAP12 PUSH27 0xED65A989609FEBB0A860A1E83228AF02A06DED6F8DEBF5E1CF6473 PUSH16 0x6C634300060A0033454950373132446F PUSH14 0x61696E28737472696E67206E616D PUSH6 0x2C737472696E PUSH8 0x2076657273696F6E 0x2C PUSH22 0x696E7432353620636861696E49642C61646472657373 KECCAK256 PUSH23 0x6572696679696E67436F6E747261637429000000000000 "
        },
        "methodIdentifiers": {
          "DELEGABLE_DOMAIN()": "459e414f",
          "SIGNATURE_TYPEHASH()": "c0bd65d7",
          "addDelegate(address)": "e71bdf41",
          "addDelegateBySignature(address,address,uint256,uint8,bytes32,bytes32)": "1a28ff05",
          "delegated(address,address)": "f6bcbd31",
          "revokeDelegate(address)": "fa352c00",
          "signatureCount(address)": "b5d832fe"
        }
      }
    }
  }
}