{
  "contracts/TLMProxy.sol": {
    "TLMProxy": {
      "abi": [
        {
          "inputs": [
            {
              "internalType": "contract IController",
              "name": "_controller",
              "type": "address"
            },
            {
              "internalType": "contract DssTlmAbstract",
              "name": "tlm_",
              "type": "address"
            }
          ],
          "stateMutability": "nonpayable",
          "type": "constructor"
        },
        {
          "inputs": [],
          "name": "FYDAI",
          "outputs": [
            {
              "internalType": "bytes32",
              "name": "",
              "type": "bytes32"
            }
          ],
          "stateMutability": "view",
          "type": "function"
        },
        {
          "inputs": [],
          "name": "UNIT",
          "outputs": [
            {
              "internalType": "uint256",
              "name": "",
              "type": "uint256"
            }
          ],
          "stateMutability": "view",
          "type": "function"
        },
        {
          "inputs": [],
          "name": "WETH",
          "outputs": [
            {
              "internalType": "bytes32",
              "name": "",
              "type": "bytes32"
            }
          ],
          "stateMutability": "view",
          "type": "function"
        },
        {
          "inputs": [
            {
              "internalType": "bytes32",
              "name": "collateral",
              "type": "bytes32"
            },
            {
              "internalType": "uint256",
              "name": "maturity",
              "type": "uint256"
            },
            {
              "internalType": "bytes32",
              "name": "ilk",
              "type": "bytes32"
            },
            {
              "internalType": "address",
              "name": "to",
              "type": "address"
            },
            {
              "internalType": "uint256",
              "name": "fyDaiToBorrow",
              "type": "uint256"
            }
          ],
          "name": "borrow",
          "outputs": [
            {
              "internalType": "uint256",
              "name": "",
              "type": "uint256"
            }
          ],
          "stateMutability": "nonpayable",
          "type": "function"
        },
        {
          "inputs": [],
          "name": "controller",
          "outputs": [
            {
              "internalType": "contract IController",
              "name": "",
              "type": "address"
            }
          ],
          "stateMutability": "view",
          "type": "function"
        },
        {
          "inputs": [],
          "name": "tlm",
          "outputs": [
            {
              "internalType": "contract DssTlmAbstract",
              "name": "",
              "type": "address"
            }
          ],
          "stateMutability": "view",
          "type": "function"
        }
      ],
      "evm": {
        "bytecode": {
          "linkReferences": {},
          "object": "60c060405234801561001057600080fd5b506040516104163803806104168339818101604052604081101561003357600080fd5b5080516020909101516001600160601b0319606092831b8116608052911b1660a05260805160601c60a05160601c61038e6100886000398061024252806103125250806101e15280610336525061038e6000f3fe608060405234801561001057600080fd5b50600436106100725760003560e01c8063b3b65f1611610050578063b3b65f16146100a1578063bf4c1bce146100ec578063f77c47911461011d57610072565b80631a3fed60146100775780639d8e217714610091578063ad5c464814610099575b600080fd5b61007f610125565b60408051918252519081900360200190f35b61007f610149565b61007f610159565b61007f600480360360a08110156100b757600080fd5b5080359060208101359060408101359073ffffffffffffffffffffffffffffffffffffffff606082013516906080013561017d565b6100f4610310565b6040805173ffffffffffffffffffffffffffffffffffffffff9092168252519081900360200190f35b6100f4610334565b7f465944414900000000000000000000000000000000000000000000000000000081565b6b033b2e3c9fd0803ce800000081565b7f4554482d4100000000000000000000000000000000000000000000000000000081565b604080517f801d325f000000000000000000000000000000000000000000000000000000008152600481018790526024810186905233604482015230606482015260848101839052905160009173ffffffffffffffffffffffffffffffffffffffff7f0000000000000000000000000000000000000000000000000000000000000000169163801d325f9160a480820192869290919082900301818387803b15801561022857600080fd5b505af115801561023c573d6000803e3d6000fd5b505050507f000000000000000000000000000000000000000000000000000000000000000073ffffffffffffffffffffffffffffffffffffffff1663cb8ec2a38585856040518463ffffffff1660e01b8152600401808481526020018373ffffffffffffffffffffffffffffffffffffffff1673ffffffffffffffffffffffffffffffffffffffff1681526020018281526020019350505050600060405180830381600087803b1580156102ef57600080fd5b505af1158015610303573d6000803e3d6000fd5b5050505095945050505050565b7f000000000000000000000000000000000000000000000000000000000000000081565b7f00000000000000000000000000000000000000000000000000000000000000008156fea2646970667358221220246c42b3ad6da57e9f2ae53e3d82e985c2ba67476d64aed529df1d6a5b8b806a64736f6c634300060a0033",
          "opcodes": "PUSH1 0xC0 PUSH1 0x40 MSTORE CALLVALUE DUP1 ISZERO PUSH2 0x10 JUMPI PUSH1 0x0 DUP1 REVERT JUMPDEST POP PUSH1 0x40 MLOAD PUSH2 0x416 CODESIZE SUB DUP1 PUSH2 0x416 DUP4 CODECOPY DUP2 DUP2 ADD PUSH1 0x40 MSTORE PUSH1 0x40 DUP2 LT ISZERO PUSH2 0x33 JUMPI PUSH1 0x0 DUP1 REVERT JUMPDEST POP DUP1 MLOAD PUSH1 0x20 SWAP1 SWAP2 ADD MLOAD PUSH1 0x1 PUSH1 0x1 PUSH1 0x60 SHL SUB NOT PUSH1 0x60 SWAP3 DUP4 SHL DUP2 AND PUSH1 0x80 MSTORE SWAP2 SHL AND PUSH1 0xA0 MSTORE PUSH1 0x80 MLOAD PUSH1 0x60 SHR PUSH1 0xA0 MLOAD PUSH1 0x60 SHR PUSH2 0x38E PUSH2 0x88 PUSH1 0x0 CODECOPY DUP1 PUSH2 0x242 MSTORE DUP1 PUSH2 0x312 MSTORE POP DUP1 PUSH2 0x1E1 MSTORE DUP1 PUSH2 0x336 MSTORE POP PUSH2 0x38E PUSH1 0x0 RETURN INVALID PUSH1 0x80 PUSH1 0x40 MSTORE CALLVALUE DUP1 ISZERO PUSH2 0x10 JUMPI PUSH1 0x0 DUP1 REVERT JUMPDEST POP PUSH1 0x4 CALLDATASIZE LT PUSH2 0x72 JUMPI PUSH1 0x0 CALLDATALOAD PUSH1 0xE0 SHR DUP1 PUSH4 0xB3B65F16 GT PUSH2 0x50 JUMPI DUP1 PUSH4 0xB3B65F16 EQ PUSH2 0xA1 JUMPI DUP1 PUSH4 0xBF4C1BCE EQ PUSH2 0xEC JUMPI DUP1 PUSH4 0xF77C4791 EQ PUSH2 0x11D JUMPI PUSH2 0x72 JUMP JUMPDEST DUP1 PUSH4 0x1A3FED60 EQ PUSH2 0x77 JUMPI DUP1 PUSH4 0x9D8E2177 EQ PUSH2 0x91 JUMPI DUP1 PUSH4 0xAD5C4648 EQ PUSH2 0x99 JUMPI JUMPDEST PUSH1 0x0 DUP1 REVERT JUMPDEST PUSH2 0x7F PUSH2 0x125 JUMP JUMPDEST PUSH1 0x40 DUP1 MLOAD SWAP2 DUP3 MSTORE MLOAD SWAP1 DUP2 SWAP1 SUB PUSH1 0x20 ADD SWAP1 RETURN JUMPDEST PUSH2 0x7F PUSH2 0x149 JUMP JUMPDEST PUSH2 0x7F PUSH2 0x159 JUMP JUMPDEST PUSH2 0x7F PUSH1 0x4 DUP1 CALLDATASIZE SUB PUSH1 0xA0 DUP2 LT ISZERO PUSH2 0xB7 JUMPI PUSH1 0x0 DUP1 REVERT JUMPDEST POP DUP1 CALLDATALOAD SWAP1 PUSH1 0x20 DUP2 ADD CALLDATALOAD SWAP1 PUSH1 0x40 DUP2 ADD CALLDATALOAD SWAP1 PUSH20 0xFFFFFFFFFFFFFFFFFFFFFFFFFFFFFFFFFFFFFFFF PUSH1 0x60 DUP3 ADD CALLDATALOAD AND SWAP1 PUSH1 0x80 ADD CALLDATALOAD PUSH2 0x17D JUMP JUMPDEST PUSH2 0xF4 PUSH2 0x310 JUMP JUMPDEST PUSH1 0x40 DUP1 MLOAD PUSH20 0xFFFFFFFFFFFFFFFFFFFFFFFFFFFFFFFFFFFFFFFF SWAP1 SWAP3 AND DUP3 MSTORE MLOAD SWAP1 DUP2 SWAP1 SUB PUSH1 0x20 ADD SWAP1 RETURN JUMPDEST PUSH2 0xF4 PUSH2 0x334 JUMP JUMPDEST PUSH32 0x4659444149000000000000000000000000000000000000000000000000000000 DUP2 JUMP JUMPDEST PUSH12 0x33B2E3C9FD0803CE8000000 DUP2 JUMP JUMPDEST PUSH32 0x4554482D41000000000000000000000000000000000000000000000000000000 DUP2 JUMP JUMPDEST PUSH1 0x40 DUP1 MLOAD PUSH32 0x801D325F00000000000000000000000000000000000000000000000000000000 DUP2 MSTORE PUSH1 0x4 DUP2 ADD DUP8 SWAP1 MSTORE PUSH1 0x24 DUP2 ADD DUP7 SWAP1 MSTORE CALLER PUSH1 0x44 DUP3 ADD MSTORE ADDRESS PUSH1 0x64 DUP3 ADD MSTORE PUSH1 0x84 DUP2 ADD DUP4 SWAP1 MSTORE SWAP1 MLOAD PUSH1 0x0 SWAP2 PUSH20 0xFFFFFFFFFFFFFFFFFFFFFFFFFFFFFFFFFFFFFFFF PUSH32 0x0 AND SWAP2 PUSH4 0x801D325F SWAP2 PUSH1 0xA4 DUP1 DUP3 ADD SWAP3 DUP7 SWAP3 SWAP1 SWAP2 SWAP1 DUP3 SWAP1 SUB ADD DUP2 DUP4 DUP8 DUP1 EXTCODESIZE ISZERO DUP1 ISZERO PUSH2 0x228 JUMPI PUSH1 0x0 DUP1 REVERT JUMPDEST POP GAS CALL ISZERO DUP1 ISZERO PUSH2 0x23C JUMPI RETURNDATASIZE PUSH1 0x0 DUP1 RETURNDATACOPY RETURNDATASIZE PUSH1 0x0 REVERT JUMPDEST POP POP POP POP PUSH32 0x0 PUSH20 0xFFFFFFFFFFFFFFFFFFFFFFFFFFFFFFFFFFFFFFFF AND PUSH4 0xCB8EC2A3 DUP6 DUP6 DUP6 PUSH1 0x40 MLOAD DUP5 PUSH4 0xFFFFFFFF AND PUSH1 0xE0 SHL DUP2 MSTORE PUSH1 0x4 ADD DUP1 DUP5 DUP2 MSTORE PUSH1 0x20 ADD DUP4 PUSH20 0xFFFFFFFFFFFFFFFFFFFFFFFFFFFFFFFFFFFFFFFF AND PUSH20 0xFFFFFFFFFFFFFFFFFFFFFFFFFFFFFFFFFFFFFFFF AND DUP2 MSTORE PUSH1 0x20 ADD DUP3 DUP2 MSTORE PUSH1 0x20 ADD SWAP4 POP POP POP POP PUSH1 0x0 PUSH1 0x40 MLOAD DUP1 DUP4 SUB DUP2 PUSH1 0x0 DUP8 DUP1 EXTCODESIZE ISZERO DUP1 ISZERO PUSH2 0x2EF JUMPI PUSH1 0x0 DUP1 REVERT JUMPDEST POP GAS CALL ISZERO DUP1 ISZERO PUSH2 0x303 JUMPI RETURNDATASIZE PUSH1 0x0 DUP1 RETURNDATACOPY RETURNDATASIZE PUSH1 0x0 REVERT JUMPDEST POP POP POP POP SWAP6 SWAP5 POP POP POP POP POP JUMP JUMPDEST PUSH32 0x0 DUP2 JUMP JUMPDEST PUSH32 0x0 DUP2 JUMP INVALID LOG2 PUSH5 0x6970667358 0x22 SLT KECCAK256 0x24 PUSH13 0x42B3AD6DA57E9F2AE53E3D82E9 DUP6 0xC2 0xBA PUSH8 0x476D64AED529DF1D PUSH11 0x5B8B806A64736F6C634300 MOD EXP STOP CALLER "
        },
        "methodIdentifiers": {
          "FYDAI()": "1a3fed60",
          "UNIT()": "9d8e2177",
          "WETH()": "ad5c4648",
          "borrow(bytes32,uint256,bytes32,address,uint256)": "b3b65f16",
          "controller()": "f77c4791",
          "tlm()": "bf4c1bce"
        }
      }
    }
  }
}