{
  "contracts/mocks/TLMMock.sol": {
    "TLMMock": {
      "abi": [
        {
          "inputs": [
            {
              "internalType": "contract ERC20Mock",
              "name": "dai_",
              "type": "address"
            },
            {
              "internalType": "contract IFYDai",
              "name": "fyDai_",
              "type": "address"
            }
          ],
          "stateMutability": "nonpayable",
          "type": "constructor"
        },
        {
          "inputs": [],
          "name": "FYDAI",
          "outputs": [
            {
              "internalType": "bytes32",
              "name": "",
              "type": "bytes32"
            }
          ],
          "stateMutability": "view",
          "type": "function"
        },
        {
          "inputs": [],
          "name": "dai",
          "outputs": [
            {
              "internalType": "contract ERC20Mock",
              "name": "",
              "type": "address"
            }
          ],
          "stateMutability": "view",
          "type": "function"
        },
        {
          "inputs": [],
          "name": "gem",
          "outputs": [
            {
              "internalType": "contract IFYDai",
              "name": "",
              "type": "address"
            }
          ],
          "stateMutability": "view",
          "type": "function"
        },
        {
          "inputs": [
            {
              "internalType": "bytes32",
              "name": "",
              "type": "bytes32"
            }
          ],
          "name": "ilks",
          "outputs": [
            {
              "internalType": "address",
              "name": "gemJoin",
              "type": "address"
            },
            {
              "internalType": "uint256",
              "name": "yield",
              "type": "uint256"
            }
          ],
          "stateMutability": "view",
          "type": "function"
        },
        {
          "inputs": [
            {
              "internalType": "bytes32",
              "name": "ilk",
              "type": "bytes32"
            },
            {
              "internalType": "address",
              "name": "usr",
              "type": "address"
            },
            {
              "internalType": "uint256",
              "name": "gemAmt",
              "type": "uint256"
            }
          ],
          "name": "sellGem",
          "outputs": [],
          "stateMutability": "nonpayable",
          "type": "function"
        }
      ],
      "evm": {
        "bytecode": {
          "linkReferences": {},
          "object": "60c060405234801561001057600080fd5b5060405161074b38038061074b8339818101604052604081101561003357600080fd5b5080516020909101516001600160601b0319606083811b821660805282901b1660a0526040518190610064906100ea565b6001600160a01b03909116815260405190819003602001906000f080158015610091573d6000803e3d6000fd5b5064465944414960d81b60009081526020527f784756658bac43aeede008208cd643d250e763cff74a01e6028a59852d926e7680546001600160a01b0319166001600160a01b0392909216919091179055506100f79050565b61023c8061050f83390190565b60805160601c60a05160601c6103ea6101256000398061017352508061029b528061039252506103ea6000f3fe608060405234801561001057600080fd5b50600436106100675760003560e01c8063cb8ec2a311610050578063cb8ec2a3146100b7578063d9638d36146100f8578063f4b9fa751461014557610067565b80631a3fed601461006c5780637bd2bea714610086575b600080fd5b61007461014d565b60408051918252519081900360200190f35b61008e610171565b6040805173ffffffffffffffffffffffffffffffffffffffff9092168252519081900360200190f35b6100f6600480360360608110156100cd57600080fd5b5080359073ffffffffffffffffffffffffffffffffffffffff6020820135169060400135610195565b005b6101156004803603602081101561010e57600080fd5b503561035e565b6040805173ffffffffffffffffffffffffffffffffffffffff909316835260208301919091528051918290030190f35b61008e610390565b7f465944414900000000000000000000000000000000000000000000000000000081565b7f000000000000000000000000000000000000000000000000000000000000000081565b7f465944414900000000000000000000000000000000000000000000000000000083146101c157600080fd5b7f4659444149000000000000000000000000000000000000000000000000000000600090815260208190527f784756658bac43aeede008208cd643d250e763cff74a01e6028a59852d926e7654604080517ff2d5d56b000000000000000000000000000000000000000000000000000000008152336004820152602481018590529051849373ffffffffffffffffffffffffffffffffffffffff9093169263f2d5d56b926044808201939182900301818387803b15801561028157600080fd5b505af1158015610295573d6000803e3d6000fd5b505050507f000000000000000000000000000000000000000000000000000000000000000073ffffffffffffffffffffffffffffffffffffffff166340c10f1984836040518363ffffffff1660e01b8152600401808373ffffffffffffffffffffffffffffffffffffffff1673ffffffffffffffffffffffffffffffffffffffff16815260200182815260200192505050600060405180830381600087803b15801561034057600080fd5b505af1158015610354573d6000803e3d6000fd5b5050505050505050565b6000602081905290815260409020805460019091015473ffffffffffffffffffffffffffffffffffffffff9091169082565b7f00000000000000000000000000000000000000000000000000000000000000008156fea26469706673582212208d312083c2c3f067d0e2643c63a65195916101e66c86a3ccc9f88316ed29794964736f6c634300060a003360a060405234801561001057600080fd5b5060405161023c38038061023c8339818101604052602081101561003357600080fd5b5051606081901b6001600160601b0319166080526001600160a01b03166101d161006b6000398060a9528061012052506101d16000f3fe608060405234801561001057600080fd5b50600436106100365760003560e01c80637bd2bea71461003b578063f2d5d56b1461006c575b600080fd5b6100436100a7565b6040805173ffffffffffffffffffffffffffffffffffffffff9092168252519081900360200190f35b6100a56004803603604081101561008257600080fd5b5073ffffffffffffffffffffffffffffffffffffffff81351690602001356100cb565b005b7f000000000000000000000000000000000000000000000000000000000000000081565b604080517f23b872dd00000000000000000000000000000000000000000000000000000000815273ffffffffffffffffffffffffffffffffffffffff84811660048301523060248301526044820184905291517f0000000000000000000000000000000000000000000000000000000000000000909216916323b872dd916064808201926020929091908290030181600087803b15801561016b57600080fd5b505af115801561017f573d6000803e3d6000fd5b505050506040513d602081101561019557600080fd5b5050505056fea2646970667358221220556d875d002e3c78e52eb586edfacc5495404f0f814b661df2e69724ebad064c64736f6c634300060a0033",
          "opcodes": "PUSH1 0xC0 PUSH1 0x40 MSTORE CALLVALUE DUP1 ISZERO PUSH2 0x10 JUMPI PUSH1 0x0 DUP1 REVERT JUMPDEST POP PUSH1 0x40 MLOAD PUSH2 0x74B CODESIZE SUB DUP1 PUSH2 0x74B DUP4 CODECOPY DUP2 DUP2 ADD PUSH1 0x40 MSTORE PUSH1 0x40 DUP2 LT ISZERO PUSH2 0x33 JUMPI PUSH1 0x0 DUP1 REVERT JUMPDEST POP DUP1 MLOAD PUSH1 0x20 SWAP1 SWAP2 ADD MLOAD PUSH1 0x1 PUSH1 0x1 PUSH1 0x60 SHL SUB NOT PUSH1 0x60 DUP4 DUP2 SHL DUP3 AND PUSH1 0x80 MSTORE DUP3 SWAP1 SHL AND PUSH1 0xA0 MSTORE PUSH1 0x40 MLOAD DUP2 SWAP1 PUSH2 0x64 SWAP1 PUSH2 0xEA JUMP JUMPDEST PUSH1 0x1 PUSH1 0x1 PUSH1 0xA0 SHL SUB SWAP1 SWAP2 AND DUP2 MSTORE PUSH1 0x40 MLOAD SWAP1 DUP2 SWAP1 SUB PUSH1 0x20 ADD SWAP1 PUSH1 0x0 CREATE DUP1 ISZERO DUP1 ISZERO PUSH2 0x91 JUMPI RETURNDATASIZE PUSH1 0x0 DUP1 RETURNDATACOPY RETURNDATASIZE PUSH1 0x0 REVERT JUMPDEST POP PUSH5 0x4659444149 PUSH1 0xD8 SHL PUSH1 0x0 SWAP1 DUP2 MSTORE PUSH1 0x20 MSTORE PUSH32 0x784756658BAC43AEEDE008208CD643D250E763CFF74A01E6028A59852D926E76 DUP1 SLOAD PUSH1 0x1 PUSH1 0x1 PUSH1 0xA0 SHL SUB NOT AND PUSH1 0x1 PUSH1 0x1 PUSH1 0xA0 SHL SUB SWAP3 SWAP1 SWAP3 AND SWAP2 SWAP1 SWAP2 OR SWAP1 SSTORE POP PUSH2 0xF7 SWAP1 POP JUMP JUMPDEST PUSH2 0x23C DUP1 PUSH2 0x50F DUP4 CODECOPY ADD SWAP1 JUMP JUMPDEST PUSH1 0x80 MLOAD PUSH1 0x60 SHR PUSH1 0xA0 MLOAD PUSH1 0x60 SHR PUSH2 0x3EA PUSH2 0x125 PUSH1 0x0 CODECOPY DUP1 PUSH2 0x173 MSTORE POP DUP1 PUSH2 0x29B MSTORE DUP1 PUSH2 0x392 MSTORE POP PUSH2 0x3EA PUSH1 0x0 RETURN INVALID PUSH1 0x80 PUSH1 0x40 MSTORE CALLVALUE DUP1 ISZERO PUSH2 0x10 JUMPI PUSH1 0x0 DUP1 REVERT JUMPDEST POP PUSH1 0x4 CALLDATASIZE LT PUSH2 0x67 JUMPI PUSH1 0x0 CALLDATALOAD PUSH1 0xE0 SHR DUP1 PUSH4 0xCB8EC2A3 GT PUSH2 0x50 JUMPI DUP1 PUSH4 0xCB8EC2A3 EQ PUSH2 0xB7 JUMPI DUP1 PUSH4 0xD9638D36 EQ PUSH2 0xF8 JUMPI DUP1 PUSH4 0xF4B9FA75 EQ PUSH2 0x145 JUMPI PUSH2 0x67 JUMP JUMPDEST DUP1 PUSH4 0x1A3FED60 EQ PUSH2 0x6C JUMPI DUP1 PUSH4 0x7BD2BEA7 EQ PUSH2 0x86 JUMPI JUMPDEST PUSH1 0x0 DUP1 REVERT JUMPDEST PUSH2 0x74 PUSH2 0x14D JUMP JUMPDEST PUSH1 0x40 DUP1 MLOAD SWAP2 DUP3 MSTORE MLOAD SWAP1 DUP2 SWAP1 SUB PUSH1 0x20 ADD SWAP1 RETURN JUMPDEST PUSH2 0x8E PUSH2 0x171 JUMP JUMPDEST PUSH1 0x40 DUP1 MLOAD PUSH20 0xFFFFFFFFFFFFFFFFFFFFFFFFFFFFFFFFFFFFFFFF SWAP1 SWAP3 AND DUP3 MSTORE MLOAD SWAP1 DUP2 SWAP1 SUB PUSH1 0x20 ADD SWAP1 RETURN JUMPDEST PUSH2 0xF6 PUSH1 0x4 DUP1 CALLDATASIZE SUB PUSH1 0x60 DUP2 LT ISZERO PUSH2 0xCD JUMPI PUSH1 0x0 DUP1 REVERT JUMPDEST POP DUP1 CALLDATALOAD SWAP1 PUSH20 0xFFFFFFFFFFFFFFFFFFFFFFFFFFFFFFFFFFFFFFFF PUSH1 0x20 DUP3 ADD CALLDATALOAD AND SWAP1 PUSH1 0x40 ADD CALLDATALOAD PUSH2 0x195 JUMP JUMPDEST STOP JUMPDEST PUSH2 0x115 PUSH1 0x4 DUP1 CALLDATASIZE SUB PUSH1 0x20 DUP2 LT ISZERO PUSH2 0x10E JUMPI PUSH1 0x0 DUP1 REVERT JUMPDEST POP CALLDATALOAD PUSH2 0x35E JUMP JUMPDEST PUSH1 0x40 DUP1 MLOAD PUSH20 0xFFFFFFFFFFFFFFFFFFFFFFFFFFFFFFFFFFFFFFFF SWAP1 SWAP4 AND DUP4 MSTORE PUSH1 0x20 DUP4 ADD SWAP2 SWAP1 SWAP2 MSTORE DUP1 MLOAD SWAP2 DUP3 SWAP1 SUB ADD SWAP1 RETURN JUMPDEST PUSH2 0x8E PUSH2 0x390 JUMP JUMPDEST PUSH32 0x4659444149000000000000000000000000000000000000000000000000000000 DUP2 JUMP JUMPDEST PUSH32 0x0 DUP2 JUMP JUMPDEST PUSH32 0x4659444149000000000000000000000000000000000000000000000000000000 DUP4 EQ PUSH2 0x1C1 JUMPI PUSH1 0x0 DUP1 REVERT JUMPDEST PUSH32 0x4659444149000000000000000000000000000000000000000000000000000000 PUSH1 0x0 SWAP1 DUP2 MSTORE PUSH1 0x20 DUP2 SWAP1 MSTORE PUSH32 0x784756658BAC43AEEDE008208CD643D250E763CFF74A01E6028A59852D926E76 SLOAD PUSH1 0x40 DUP1 MLOAD PUSH32 0xF2D5D56B00000000000000000000000000000000000000000000000000000000 DUP2 MSTORE CALLER PUSH1 0x4 DUP3 ADD MSTORE PUSH1 0x24 DUP2 ADD DUP6 SWAP1 MSTORE SWAP1 MLOAD DUP5 SWAP4 PUSH20 0xFFFFFFFFFFFFFFFFFFFFFFFFFFFFFFFFFFFFFFFF SWAP1 SWAP4 AND SWAP3 PUSH4 0xF2D5D56B SWAP3 PUSH1 0x44 DUP1 DUP3 ADD SWAP4 SWAP2 DUP3 SWAP1 SUB ADD DUP2 DUP4 DUP8 DUP1 EXTCODESIZE ISZERO DUP1 ISZERO PUSH2 0x281 JUMPI PUSH1 0x0 DUP1 REVERT JUMPDEST POP GAS CALL ISZERO DUP1 ISZERO PUSH2 0x295 JUMPI RETURNDATASIZE PUSH1 0x0 DUP1 RETURNDATACOPY RETURNDATASIZE PUSH1 0x0 REVERT JUMPDEST POP POP POP POP PUSH32 0x0 PUSH20 0xFFFFFFFFFFFFFFFFFFFFFFFFFFFFFFFFFFFFFFFF AND PUSH4 0x40C10F19 DUP5 DUP4 PUSH1 0x40 MLOAD DUP4 PUSH4 0xFFFFFFFF AND PUSH1 0xE0 SHL DUP2 MSTORE PUSH1 0x4 ADD DUP1 DUP4 PUSH20 0xFFFFFFFFFFFFFFFFFFFFFFFFFFFFFFFFFFFFFFFF AND PUSH20 0xFFFFFFFFFFFFFFFFFFFFFFFFFFFFFFFFFFFFFFFF AND DUP2 MSTORE PUSH1 0x20 ADD DUP3 DUP2 MSTORE PUSH1 0x20 ADD SWAP3 POP POP POP PUSH1 0x0 PUSH1 0x40 MLOAD DUP1 DUP4 SUB DUP2 PUSH1 0x0 DUP8 DUP1 EXTCODESIZE ISZERO DUP1 ISZERO PUSH2 0x340 JUMPI PUSH1 0x0 DUP1 REVERT JUMPDEST POP GAS CALL ISZERO DUP1 ISZERO PUSH2 0x354 JUMPI RETURNDATASIZE PUSH1 0x0 DUP1 RETURNDATACOPY RETURNDATASIZE PUSH1 0x0 REVERT JUMPDEST POP POP POP POP POP POP POP POP JUMP JUMPDEST PUSH1 0x0 PUSH1 0x20 DUP2 SWAP1 MSTORE SWAP1 DUP2 MSTORE PUSH1 0x40 SWAP1 KECCAK256 DUP1 SLOAD PUSH1 0x1 SWAP1 SWAP2 ADD SLOAD PUSH20 0xFFFFFFFFFFFFFFFFFFFFFFFFFFFFFFFFFFFFFFFF SWAP1 SWAP2 AND SWAP1 DUP3 JUMP JUMPDEST PUSH32 0x0 DUP2 JUMP INVALID LOG2 PUSH5 0x6970667358 0x22 SLT KECCAK256 DUP14 BALANCE KECCAK256 DUP4 0xC2 0xC3 CREATE PUSH8 0xD0E2643C63A65195 SWAP2 PUSH2 0x1E6 PUSH13 0x86A3CCC9F88316ED2979496473 PUSH16 0x6C634300060A003360A0604052348015 PUSH2 0x10 JUMPI PUSH1 0x0 DUP1 REVERT JUMPDEST POP PUSH1 0x40 MLOAD PUSH2 0x23C CODESIZE SUB DUP1 PUSH2 0x23C DUP4 CODECOPY DUP2 DUP2 ADD PUSH1 0x40 MSTORE PUSH1 0x20 DUP2 LT ISZERO PUSH2 0x33 JUMPI PUSH1 0x0 DUP1 REVERT JUMPDEST POP MLOAD PUSH1 0x60 DUP2 SWAP1 SHL PUSH1 0x1 PUSH1 0x1 PUSH1 0x60 SHL SUB NOT AND PUSH1 0x80 MSTORE PUSH1 0x1 PUSH1 0x1 PUSH1 0xA0 SHL SUB AND PUSH2 0x1D1 PUSH2 0x6B PUSH1 0x0 CODECOPY DUP1 PUSH1 0xA9 MSTORE DUP1 PUSH2 0x120 MSTORE POP PUSH2 0x1D1 PUSH1 0x0 RETURN INVALID PUSH1 0x80 PUSH1 0x40 MSTORE CALLVALUE DUP1 ISZERO PUSH2 0x10 JUMPI PUSH1 0x0 DUP1 REVERT JUMPDEST POP PUSH1 0x4 CALLDATASIZE LT PUSH2 0x36 JUMPI PUSH1 0x0 CALLDATALOAD PUSH1 0xE0 SHR DUP1 PUSH4 0x7BD2BEA7 EQ PUSH2 0x3B JUMPI DUP1 PUSH4 0xF2D5D56B EQ PUSH2 0x6C JUMPI JUMPDEST PUSH1 0x0 DUP1 REVERT JUMPDEST PUSH2 0x43 PUSH2 0xA7 JUMP JUMPDEST PUSH1 0x40 DUP1 MLOAD PUSH20 0xFFFFFFFFFFFFFFFFFFFFFFFFFFFFFFFFFFFFFFFF SWAP1 SWAP3 AND DUP3 MSTORE MLOAD SWAP1 DUP2 SWAP1 SUB PUSH1 0x20 ADD SWAP1 RETURN JUMPDEST PUSH2 0xA5 PUSH1 0x4 DUP1 CALLDATASIZE SUB PUSH1 0x40 DUP2 LT ISZERO PUSH2 0x82 JUMPI PUSH1 0x0 DUP1 REVERT JUMPDEST POP PUSH20 0xFFFFFFFFFFFFFFFFFFFFFFFFFFFFFFFFFFFFFFFF DUP2 CALLDATALOAD AND SWAP1 PUSH1 0x20 ADD CALLDATALOAD PUSH2 0xCB JUMP JUMPDEST STOP JUMPDEST PUSH32 0x0 DUP2 JUMP JUMPDEST PUSH1 0x40 DUP1 MLOAD PUSH32 0x23B872DD00000000000000000000000000000000000000000000000000000000 DUP2 MSTORE PUSH20 0xFFFFFFFFFFFFFFFFFFFFFFFFFFFFFFFFFFFFFFFF DUP5 DUP2 AND PUSH1 0x4 DUP4 ADD MSTORE ADDRESS PUSH1 0x24 DUP4 ADD MSTORE PUSH1 0x44 DUP3 ADD DUP5 SWAP1 MSTORE SWAP2 MLOAD PUSH32 0x0 SWAP1 SWAP3 AND SWAP2 PUSH4 0x23B872DD SWAP2 PUSH1 0x64 DUP1 DUP3 ADD SWAP3 PUSH1 0x20 SWAP3 SWAP1 SWAP2 SWAP1 DUP3 SWAP1 SUB ADD DUP2 PUSH1 0x0 DUP8 DUP1 EXTCODESIZE ISZERO DUP1 ISZERO PUSH2 0x16B JUMPI PUSH1 0x0 DUP1 REVERT JUMPDEST POP GAS CALL ISZERO DUP1 ISZERO PUSH2 0x17F JUMPI RETURNDATASIZE PUSH1 0x0 DUP1 RETURNDATACOPY RETURNDATASIZE PUSH1 0x0 REVERT JUMPDEST POP POP POP POP PUSH1 0x40 MLOAD RETURNDATASIZE PUSH1 0x20 DUP2 LT ISZERO PUSH2 0x195 JUMPI PUSH1 0x0 DUP1 REVERT JUMPDEST POP POP POP POP JUMP INVALID LOG2 PUSH5 0x6970667358 0x22 SLT KECCAK256 SSTORE PUSH14 0x875D002E3C78E52EB586EDFACC54 SWAP6 BLOCKHASH 0x4F 0xF DUP2 0x4B PUSH7 0x1DF2E69724EBAD MOD 0x4C PUSH5 0x736F6C6343 STOP MOD EXP STOP CALLER "
        },
        "methodIdentifiers": {
          "FYDAI()": "1a3fed60",
          "dai()": "f4b9fa75",
          "gem()": "7bd2bea7",
          "ilks(bytes32)": "d9638d36",
          "sellGem(bytes32,address,uint256)": "cb8ec2a3"
        }
      }
    }
  }
}