{
  "@yield-protocol/utils/contracts/math/DecimalMath.sol": {
    "DecimalMath": {
      "abi": [
        {
          "inputs": [],
          "name": "UNIT",
          "outputs": [
            {
              "internalType": "uint256",
              "name": "",
              "type": "uint256"
            }
          ],
          "stateMutability": "view",
          "type": "function"
        }
      ],
      "evm": {
        "bytecode": {
          "linkReferences": {},
          "object": "6080604052348015600f57600080fd5b50608b8061001e6000396000f3fe6080604052348015600f57600080fd5b506004361060285760003560e01c80639d8e217714602d575b600080fd5b60336045565b60408051918252519081900360200190f35b6b033b2e3c9fd0803ce80000008156fea2646970667358221220ffcf2eb9302f00b0e7ec82e6b649324c352a018b2eb064bd4fdcec520d2ca56064736f6c634300060a0033",
          "opcodes": "PUSH1 0x80 PUSH1 0x40 MSTORE CALLVALUE DUP1 ISZERO PUSH1 0xF JUMPI PUSH1 0x0 DUP1 REVERT JUMPDEST POP PUSH1 0x8B DUP1 PUSH2 0x1E PUSH1 0x0 CODECOPY PUSH1 0x0 RETURN INVALID PUSH1 0x80 PUSH1 0x40 MSTORE CALLVALUE DUP1 ISZERO PUSH1 0xF JUMPI PUSH1 0x0 DUP1 REVERT JUMPDEST POP PUSH1 0x4 CALLDATASIZE LT PUSH1 0x28 JUMPI PUSH1 0x0 CALLDATALOAD PUSH1 0xE0 SHR DUP1 PUSH4 0x9D8E2177 EQ PUSH1 0x2D JUMPI JUMPDEST PUSH1 0x0 DUP1 REVERT JUMPDEST PUSH1 0x33 PUSH1 0x45 JUMP JUMPDEST PUSH1 0x40 DUP1 MLOAD SWAP2 DUP3 MSTORE MLOAD SWAP1 DUP2 SWAP1 SUB PUSH1 0x20 ADD SWAP1 RETURN JUMPDEST PUSH12 0x33B2E3C9FD0803CE8000000 DUP2 JUMP INVALID LOG2 PUSH5 0x6970667358 0x22 SLT KECCAK256 SELFDESTRUCT 0xCF 0x2E 0xB9 ADDRESS 0x2F STOP 0xB0 0xE7 0xEC DUP3 0xE6 0xB6 0x49 ORIGIN 0x4C CALLDATALOAD 0x2A ADD DUP12 0x2E 0xB0 PUSH5 0xBD4FDCEC52 0xD 0x2C 0xA5 PUSH1 0x64 PUSH20 0x6F6C634300060A00330000000000000000000000 "
        },
        "methodIdentifiers": {
          "UNIT()": "9d8e2177"
        }
      }
    }
  }
}