{
  "_format": "hh-sol-artifact-1",
  "contractName": "ControllerMock",
  "sourceName": "contracts/mocks/ControllerMock.sol",
  "abi": [
    {
      "inputs": [
        {
          "internalType": "contract IERC20",
          "name": "weth_",
          "type": "address"
        },
        {
          "internalType": "contract FYDaiMock[]",
          "name": "series_",
          "type": "address[]"
        }
      ],
      "stateMutability": "nonpayable",
      "type": "constructor"
    },
    {
      "anonymous": false,
      "inputs": [
        {
          "indexed": true,
          "internalType": "address",
          "name": "user",
          "type": "address"
        },
        {
          "indexed": true,
          "internalType": "address",
          "name": "delegate",
          "type": "address"
        },
        {
          "indexed": false,
          "internalType": "bool",
          "name": "enabled",
          "type": "bool"
        }
      ],
      "name": "Delegate",
      "type": "event"
    },
    {
      "inputs": [],
      "name": "DELEGABLE_DOMAIN",
      "outputs": [
        {
          "internalType": "bytes32",
          "name": "",
          "type": "bytes32"
        }
      ],
      "stateMutability": "view",
      "type": "function"
    },
    {
      "inputs": [],
      "name": "SIGNATURE_TYPEHASH",
      "outputs": [
        {
          "internalType": "bytes32",
          "name": "",
          "type": "bytes32"
        }
      ],
      "stateMutability": "view",
      "type": "function"
    },
    {
      "inputs": [],
      "name": "WETH",
      "outputs": [
        {
          "internalType": "bytes32",
          "name": "",
          "type": "bytes32"
        }
      ],
      "stateMutability": "view",
      "type": "function"
    },
    {
      "inputs": [
        {
          "internalType": "address",
          "name": "delegate",
          "type": "address"
        }
      ],
      "name": "addDelegate",
      "outputs": [],
      "stateMutability": "nonpayable",
      "type": "function"
    },
    {
      "inputs": [
        {
          "internalType": "address",
          "name": "user",
          "type": "address"
        },
        {
          "internalType": "address",
          "name": "delegate",
          "type": "address"
        },
        {
          "internalType": "uint256",
          "name": "deadline",
          "type": "uint256"
        },
        {
          "internalType": "uint8",
          "name": "v",
          "type": "uint8"
        },
        {
          "internalType": "bytes32",
          "name": "r",
          "type": "bytes32"
        },
        {
          "internalType": "bytes32",
          "name": "s",
          "type": "bytes32"
        }
      ],
      "name": "addDelegateBySignature",
      "outputs": [],
      "stateMutability": "nonpayable",
      "type": "function"
    },
    {
      "inputs": [
        {
          "internalType": "bytes32",
          "name": "collateral",
          "type": "bytes32"
        },
        {
          "internalType": "uint256",
          "name": "maturity",
          "type": "uint256"
        },
        {
          "internalType": "address",
          "name": "from",
          "type": "address"
        },
        {
          "internalType": "address",
          "name": "to",
          "type": "address"
        },
        {
          "internalType": "uint256",
          "name": "fyDaiAmount",
          "type": "uint256"
        }
      ],
      "name": "borrow",
      "outputs": [],
      "stateMutability": "nonpayable",
      "type": "function"
    },
    {
      "inputs": [
        {
          "internalType": "address",
          "name": "",
          "type": "address"
        },
        {
          "internalType": "address",
          "name": "",
          "type": "address"
        }
      ],
      "name": "delegated",
      "outputs": [
        {
          "internalType": "bool",
          "name": "",
          "type": "bool"
        }
      ],
      "stateMutability": "view",
      "type": "function"
    },
    {
      "inputs": [
        {
          "internalType": "bytes32",
          "name": "collateral",
          "type": "bytes32"
        },
        {
          "internalType": "address",
          "name": "from",
          "type": "address"
        },
        {
          "internalType": "address",
          "name": "to",
          "type": "address"
        },
        {
          "internalType": "uint256",
          "name": "amount",
          "type": "uint256"
        }
      ],
      "name": "post",
      "outputs": [],
      "stateMutability": "nonpayable",
      "type": "function"
    },
    {
      "inputs": [
        {
          "internalType": "bytes32",
          "name": "",
          "type": "bytes32"
        }
      ],
      "name": "posted",
      "outputs": [
        {
          "internalType": "bool",
          "name": "",
          "type": "bool"
        }
      ],
      "stateMutability": "view",
      "type": "function"
    },
    {
      "inputs": [
        {
          "internalType": "address",
          "name": "delegate",
          "type": "address"
        }
      ],
      "name": "revokeDelegate",
      "outputs": [],
      "stateMutability": "nonpayable",
      "type": "function"
    },
    {
      "inputs": [
        {
          "internalType": "uint256",
          "name": "",
          "type": "uint256"
        }
      ],
      "name": "series",
      "outputs": [
        {
          "internalType": "contract FYDaiMock",
          "name": "",
          "type": "address"
        }
      ],
      "stateMutability": "view",
      "type": "function"
    },
    {
      "inputs": [
        {
          "internalType": "address",
          "name": "",
          "type": "address"
        }
      ],
      "name": "signatureCount",
      "outputs": [
        {
          "internalType": "uint256",
          "name": "",
          "type": "uint256"
        }
      ],
      "stateMutability": "view",
      "type": "function"
    },
    {
      "inputs": [],
      "name": "treasury",
      "outputs": [
        {
          "internalType": "contract TreasuryMock",
          "name": "",
          "type": "address"
        }
      ],
      "stateMutability": "view",
      "type": "function"
    },
    {
      "inputs": [],
      "name": "weth",
      "outputs": [
        {
          "internalType": "contract IERC20",
          "name": "",
          "type": "address"
        }
      ],
      "stateMutability": "view",
      "type": "function"
    }
  ],
  "bytecode": "0x6101006040527f0d077601844dd17f704bafff948229d27f33b57445915754dfe3d095fda2beb76080523480156200003657600080fd5b50604051620015d3380380620015d3833981810160405260408110156200005c57600080fd5b8151602083018051604051929492938301929190846401000000008211156200008457600080fd5b9083019060208201858111156200009a57600080fd5b8251866020820283011164010000000082111715620000b857600080fd5b82525081516020918201928201910280838360005b83811015620000e7578181015183820152602001620000cd565b505050509050016040525050506000469050604051808062001581605291396040805191829003605201822082820182526005835264165a595b1960da1b6020938401528151808301835260018152603160f81b908401528151808401919091527f0dc8618f4925c4319195a39ada16304f511bf885ff9f3d63bc6b0f3979e46fb6818301527fc89efdaa54c0f20c7adf612882df0950f5a951637e0307cdcb4c672f298b8bc6606082015260808101949094523060a08086019190915281518086038201815260c090950191829052845194909201939093209052508290620001d190620002fd565b6001600160a01b03909116815260405190819003602001906000f080158015620001ff573d6000803e3d6000fd5b506001600160601b0319606091821b811660c0529083901b1660e05260005b8151811015620002f4578181815181106200023557fe5b6020026020010151600360008484815181106200024e57fe5b60200260200101516001600160a01b031663204f83f96040518163ffffffff1660e01b815260040160206040518083038186803b1580156200028f57600080fd5b505afa158015620002a4573d6000803e3d6000fd5b505050506040513d6020811015620002bb57600080fd5b50518152602081019190915260400160002080546001600160a01b0319166001600160a01b03929092169190911790556001016200021e565b5050506200030b565b61023c806200134583390190565b60805160a05160c05160601c60e05160601c610fef62000356600039806106485250806106905280610b7b52508061048a528061066c52508061040a5280610c8c5250610fef6000f3fe608060405234801561001057600080fd5b50600436106100ea5760003560e01c8063adb9e54e1161008c578063dc22cb6a11610066578063dc22cb6a146102a8578063e71bdf41146102c5578063f6bcbd31146102f8578063fa352c0014610333576100ea565b8063adb9e54e14610224578063b5d832fe1461026d578063c0bd65d7146102a0576100ea565b806361d027b3116100c857806361d027b314610194578063801d325f1461019c578063a3d96a00146101eb578063ad5c46481461021c576100ea565b80631a28ff05146100ef5780633fc8cef314610149578063459e414f1461017a575b600080fd5b610147600480360360c081101561010557600080fd5b5073ffffffffffffffffffffffffffffffffffffffff813581169160208101359091169060408101359060ff6060820135169060808101359060a00135610366565b005b610151610646565b6040805173ffffffffffffffffffffffffffffffffffffffff9092168252519081900360200190f35b61018261066a565b60408051918252519081900360200190f35b61015161068e565b610147600480360360a08110156101b257600080fd5b5080359060208101359073ffffffffffffffffffffffffffffffffffffffff6040820135811691606081013590911690608001356106b2565b6102086004803603602081101561020157600080fd5b50356109f1565b604080519115158252519081900360200190f35b610182610a06565b6101476004803603608081101561023a57600080fd5b5080359073ffffffffffffffffffffffffffffffffffffffff602082013581169160408101359091169060600135610a2a565b6101826004803603602081101561028357600080fd5b503573ffffffffffffffffffffffffffffffffffffffff16610c78565b610182610c8a565b610151600480360360208110156102be57600080fd5b5035610cae565b610147600480360360208110156102db57600080fd5b503573ffffffffffffffffffffffffffffffffffffffff16610cd6565b6102086004803603604081101561030e57600080fd5b5073ffffffffffffffffffffffffffffffffffffffff81358116916020013516610ce3565b6101476004803603602081101561034957600080fd5b503573ffffffffffffffffffffffffffffffffffffffff16610d03565b428410156103d557604080517f08c379a000000000000000000000000000000000000000000000000000000000815260206004820152601c60248201527f44656c656761626c653a205369676e6174757265206578706972656400000000604482015290519081900360640190fd5b73ffffffffffffffffffffffffffffffffffffffff8087166000818152602081815260408083208054600180820190925582517f00000000000000000000000000000000000000000000000000000000000000008186015280840196909652958b166060860152608085019590955260a08085018a90528151808603909101815260c0850182528051908301207f190100000000000000000000000000000000000000000000000000000000000060e08601527f000000000000000000000000000000000000000000000000000000000000000060e286015261010280860182905282518087039091018152610122860180845281519185019190912090859052610142860180845281905260ff8a1661016287015261018286018990526101a2860188905291519095919491926101c28084019391927fffffffffffffffffffffffffffffffffffffffffffffffffffffffffffffffe081019281900390910190855afa15801561054b573d6000803e3d6000fd5b50506040517fffffffffffffffffffffffffffffffffffffffffffffffffffffffffffffffe0015191505073ffffffffffffffffffffffffffffffffffffffff8116158015906105c657508873ffffffffffffffffffffffffffffffffffffffff168173ffffffffffffffffffffffffffffffffffffffff16145b61063157604080517f08c379a000000000000000000000000000000000000000000000000000000000815260206004820152601c60248201527f44656c656761626c653a20496e76616c6964207369676e617475726500000000604482015290519081900360640190fd5b61063b8989610d0d565b505050505050505050565b7f000000000000000000000000000000000000000000000000000000000000000081565b7f000000000000000000000000000000000000000000000000000000000000000081565b7f000000000000000000000000000000000000000000000000000000000000000081565b847f4554482d41000000000000000000000000000000000000000000000000000000811461072b576040517f08c379a0000000000000000000000000000000000000000000000000000000008152600401808060200182810382526023815260200180610f746023913960400191505060405180910390fd5b600085815260036020526040902054859073ffffffffffffffffffffffffffffffffffffffff166107bd57604080517f08c379a000000000000000000000000000000000000000000000000000000000815260206004820152601f60248201527f436f6e74726f6c6c65723a20556e7265636f676e697a65642073657269657300604482015290519081900360640190fd5b84604051806060016040528060238152602001610f97602391393373ffffffffffffffffffffffffffffffffffffffff8316148061082b575073ffffffffffffffffffffffffffffffffffffffff8216600090815260016020908152604080832033845290915290205460ff165b81906108cf576040517f08c379a00000000000000000000000000000000000000000000000000000000081526004018080602001828103825283818151815260200191508051906020019080838360005b8381101561089457818101518382015260200161087c565b50505050905090810190601f1680156108c15780820380516001836020036101000a031916815260200191505b509250505060405180910390fd5b5060008981526002602052604090205460ff1661094d57604080517f08c379a000000000000000000000000000000000000000000000000000000000815260206004820152601960248201527f436f6e74726f6c6c65723a20546f6f206d756368206465627400000000000000604482015290519081900360640190fd5b6000888152600360205260408082205481517f40c10f1900000000000000000000000000000000000000000000000000000000815273ffffffffffffffffffffffffffffffffffffffff8a81166004830152602482018a9052925192909116926340c10f199260448084019382900301818387803b1580156109ce57600080fd5b505af11580156109e2573d6000803e3d6000fd5b50505050505050505050505050565b60026020526000908152604090205460ff1681565b7f4554482d4100000000000000000000000000000000000000000000000000000081565b837f4554482d410000000000000000000000000000000000000000000000000000008114610aa3576040517f08c379a0000000000000000000000000000000000000000000000000000000008152600401808060200182810382526023815260200180610f746023913960400191505060405180910390fd5b83604051806060016040528060238152602001610f97602391393373ffffffffffffffffffffffffffffffffffffffff83161480610b11575073ffffffffffffffffffffffffffffffffffffffff8216600090815260016020908152604080832033845290915290205460ff165b8190610b78576040517f08c379a000000000000000000000000000000000000000000000000000000000815260206004820181815283516024840152835190928392604490910191908501908083836000831561089457818101518382015260200161087c565b507f000000000000000000000000000000000000000000000000000000000000000073ffffffffffffffffffffffffffffffffffffffff1663f2d5d56b87866040518363ffffffff1660e01b8152600401808373ffffffffffffffffffffffffffffffffffffffff1673ffffffffffffffffffffffffffffffffffffffff16815260200182815260200192505050600060405180830381600087803b158015610c2057600080fd5b505af1158015610c34573d6000803e3d6000fd5b5050506000978852505060026020525050604090932080547fffffffffffffffffffffffffffffffffffffffffffffffffffffffffffffff00166001179055505050565b60006020819052908152604090205481565b7f000000000000000000000000000000000000000000000000000000000000000081565b60036020526000908152604090205473ffffffffffffffffffffffffffffffffffffffff1681565b610ce03382610d0d565b50565b600160209081526000928352604080842090915290825290205460ff1681565b610ce03382610e43565b73ffffffffffffffffffffffffffffffffffffffff80831660009081526001602090815260408083209385168352929052205460ff1615610daf57604080517f08c379a000000000000000000000000000000000000000000000000000000000815260206004820152601c60248201527f44656c656761626c653a20416c72656164792064656c65676174656400000000604482015290519081900360640190fd5b73ffffffffffffffffffffffffffffffffffffffff80831660008181526001602081815260408084209587168085529582529283902080547fffffffffffffffffffffffffffffffffffffffffffffffffffffffffffffff001683179055825191825291517f045b0fef01772d2fbba53dbd38c9777806eac0865b00af43abcfbcaf50da9206929181900390910190a35050565b73ffffffffffffffffffffffffffffffffffffffff80831660009081526001602090815260408083209385168352929052205460ff16610ee457604080517f08c379a000000000000000000000000000000000000000000000000000000000815260206004820152601e60248201527f44656c656761626c653a20416c726561647920756e64656c6567617465640000604482015290519081900360640190fd5b73ffffffffffffffffffffffffffffffffffffffff808316600081815260016020908152604080832094861680845294825280832080547fffffffffffffffffffffffffffffffffffffffffffffffffffffffffffffff001690558051928352517f045b0fef01772d2fbba53dbd38c9777806eac0865b00af43abcfbcaf50da92069281900390910190a3505056fe436f6e74726f6c6c65723a20556e7265636f676e697a656420636f6c6c61746572616c436f6e74726f6c6c65723a204f6e6c7920486f6c646572204f722044656c6567617465a264697066735822122066f1f015129274379f15cc56003cada8a49cd20e78586c08451be4194d9d5d2064736f6c634300060a003360a060405234801561001057600080fd5b5060405161023c38038061023c8339818101604052602081101561003357600080fd5b5051606081901b6001600160601b0319166080526001600160a01b03166101d161006b6000398060a9528061012052506101d16000f3fe608060405234801561001057600080fd5b50600436106100365760003560e01c80633fc8cef31461003b578063f2d5d56b1461006c575b600080fd5b6100436100a7565b6040805173ffffffffffffffffffffffffffffffffffffffff9092168252519081900360200190f35b6100a56004803603604081101561008257600080fd5b5073ffffffffffffffffffffffffffffffffffffffff81351690602001356100cb565b005b7f000000000000000000000000000000000000000000000000000000000000000081565b604080517f23b872dd00000000000000000000000000000000000000000000000000000000815273ffffffffffffffffffffffffffffffffffffffff84811660048301523060248301526044820184905291517f0000000000000000000000000000000000000000000000000000000000000000909216916323b872dd916064808201926020929091908290030181600087803b15801561016b57600080fd5b505af115801561017f573d6000803e3d6000fd5b505050506040513d602081101561019557600080fd5b5050505056fea2646970667358221220c852486b737445e7c49d765c617550b6c53b56ddd285ecf50dd9c14e0011cfd964736f6c634300060a0033454950373132446f6d61696e28737472696e67206e616d652c737472696e672076657273696f6e2c75696e7432353620636861696e49642c6164647265737320766572696679696e67436f6e747261637429",
  "linkReferences": {},
  "deployedLinkReferences": {}
}