{
  "_format": "hh-sol-artifact-1",
  "contractName": "TLMMock",
  "sourceName": "contracts/mocks/TLMMock.sol",
  "abi": [
    {
      "inputs": [
        {
          "internalType": "contract ERC20Mock",
          "name": "dai_",
          "type": "address"
        },
        {
          "internalType": "contract IFYDai",
          "name": "fyDai_",
          "type": "address"
        }
      ],
      "stateMutability": "nonpayable",
      "type": "constructor"
    },
    {
      "inputs": [],
      "name": "FYDAI",
      "outputs": [
        {
          "internalType": "bytes32",
          "name": "",
          "type": "bytes32"
        }
      ],
      "stateMutability": "view",
      "type": "function"
    },
    {
      "inputs": [],
      "name": "dai",
      "outputs": [
        {
          "internalType": "contract ERC20Mock",
          "name": "",
          "type": "address"
        }
      ],
      "stateMutability": "view",
      "type": "function"
    },
    {
      "inputs": [],
      "name": "gem",
      "outputs": [
        {
          "internalType": "contract IFYDai",
          "name": "",
          "type": "address"
        }
      ],
      "stateMutability": "view",
      "type": "function"
    },
    {
      "inputs": [
        {
          "internalType": "bytes32",
          "name": "",
          "type": "bytes32"
        }
      ],
      "name": "ilks",
      "outputs": [
        {
          "internalType": "address",
          "name": "gemJoin",
          "type": "address"
        },
        {
          "internalType": "uint256",
          "name": "yield",
          "type": "uint256"
        }
      ],
      "stateMutability": "view",
      "type": "function"
    },
    {
      "inputs": [
        {
          "internalType": "bytes32",
          "name": "ilk",
          "type": "bytes32"
        },
        {
          "internalType": "address",
          "name": "usr",
          "type": "address"
        },
        {
          "internalType": "uint256",
          "name": "gemAmt",
          "type": "uint256"
        }
      ],
      "name": "sellGem",
      "outputs": [],
      "stateMutability": "nonpayable",
      "type": "function"
    }
  ],
  "bytecode": "0x60c060405234801561001057600080fd5b5060405161074b38038061074b8339818101604052604081101561003357600080fd5b5080516020909101516001600160601b0319606083811b821660805282901b1660a0526040518190610064906100ea565b6001600160a01b03909116815260405190819003602001906000f080158015610091573d6000803e3d6000fd5b5064465944414960d81b60009081526020527f784756658bac43aeede008208cd643d250e763cff74a01e6028a59852d926e7680546001600160a01b0319166001600160a01b0392909216919091179055506100f79050565b61023c8061050f83390190565b60805160601c60a05160601c6103ea6101256000398061017352508061029b528061039252506103ea6000f3fe608060405234801561001057600080fd5b50600436106100675760003560e01c8063cb8ec2a311610050578063cb8ec2a3146100b7578063d9638d36146100f8578063f4b9fa751461014557610067565b80631a3fed601461006c5780637bd2bea714610086575b600080fd5b61007461014d565b60408051918252519081900360200190f35b61008e610171565b6040805173ffffffffffffffffffffffffffffffffffffffff9092168252519081900360200190f35b6100f6600480360360608110156100cd57600080fd5b5080359073ffffffffffffffffffffffffffffffffffffffff6020820135169060400135610195565b005b6101156004803603602081101561010e57600080fd5b503561035e565b6040805173ffffffffffffffffffffffffffffffffffffffff909316835260208301919091528051918290030190f35b61008e610390565b7f465944414900000000000000000000000000000000000000000000000000000081565b7f000000000000000000000000000000000000000000000000000000000000000081565b7f465944414900000000000000000000000000000000000000000000000000000083146101c157600080fd5b7f4659444149000000000000000000000000000000000000000000000000000000600090815260208190527f784756658bac43aeede008208cd643d250e763cff74a01e6028a59852d926e7654604080517ff2d5d56b000000000000000000000000000000000000000000000000000000008152336004820152602481018590529051849373ffffffffffffffffffffffffffffffffffffffff9093169263f2d5d56b926044808201939182900301818387803b15801561028157600080fd5b505af1158015610295573d6000803e3d6000fd5b505050507f000000000000000000000000000000000000000000000000000000000000000073ffffffffffffffffffffffffffffffffffffffff166340c10f1984836040518363ffffffff1660e01b8152600401808373ffffffffffffffffffffffffffffffffffffffff1673ffffffffffffffffffffffffffffffffffffffff16815260200182815260200192505050600060405180830381600087803b15801561034057600080fd5b505af1158015610354573d6000803e3d6000fd5b5050505050505050565b6000602081905290815260409020805460019091015473ffffffffffffffffffffffffffffffffffffffff9091169082565b7f00000000000000000000000000000000000000000000000000000000000000008156fea26469706673582212208d312083c2c3f067d0e2643c63a65195916101e66c86a3ccc9f88316ed29794964736f6c634300060a003360a060405234801561001057600080fd5b5060405161023c38038061023c8339818101604052602081101561003357600080fd5b5051606081901b6001600160601b0319166080526001600160a01b03166101d161006b6000398060a9528061012052506101d16000f3fe608060405234801561001057600080fd5b50600436106100365760003560e01c80637bd2bea71461003b578063f2d5d56b1461006c575b600080fd5b6100436100a7565b6040805173ffffffffffffffffffffffffffffffffffffffff9092168252519081900360200190f35b6100a56004803603604081101561008257600080fd5b5073ffffffffffffffffffffffffffffffffffffffff81351690602001356100cb565b005b7f000000000000000000000000000000000000000000000000000000000000000081565b604080517f23b872dd00000000000000000000000000000000000000000000000000000000815273ffffffffffffffffffffffffffffffffffffffff84811660048301523060248301526044820184905291517f0000000000000000000000000000000000000000000000000000000000000000909216916323b872dd916064808201926020929091908290030181600087803b15801561016b57600080fd5b505af115801561017f573d6000803e3d6000fd5b505050506040513d602081101561019557600080fd5b5050505056fea2646970667358221220556d875d002e3c78e52eb586edfacc5495404f0f814b661df2e69724ebad064c64736f6c634300060a0033",
  "linkReferences": {},
  "deployedLinkReferences": {}
}