{
  "_format": "hh-sol-artifact-1",
  "contractName": "Delegable",
  "sourceName": "@yield-protocol/utils/contracts/access/Delegable.sol",
  "abi": [
    {
      "inputs": [],
      "stateMutability": "nonpayable",
      "type": "constructor"
    },
    {
      "anonymous": false,
      "inputs": [
        {
          "indexed": true,
          "internalType": "address",
          "name": "user",
          "type": "address"
        },
        {
          "indexed": true,
          "internalType": "address",
          "name": "delegate",
          "type": "address"
        },
        {
          "indexed": false,
          "internalType": "bool",
          "name": "enabled",
          "type": "bool"
        }
      ],
      "name": "Delegate",
      "type": "event"
    },
    {
      "inputs": [],
      "name": "DELEGABLE_DOMAIN",
      "outputs": [
        {
          "internalType": "bytes32",
          "name": "",
          "type": "bytes32"
        }
      ],
      "stateMutability": "view",
      "type": "function"
    },
    {
      "inputs": [],
      "name": "SIGNATURE_TYPEHASH",
      "outputs": [
        {
          "internalType": "bytes32",
          "name": "",
          "type": "bytes32"
        }
      ],
      "stateMutability": "view",
      "type": "function"
    },
    {
      "inputs": [
        {
          "internalType": "address",
          "name": "delegate",
          "type": "address"
        }
      ],
      "name": "addDelegate",
      "outputs": [],
      "stateMutability": "nonpayable",
      "type": "function"
    },
    {
      "inputs": [
        {
          "internalType": "address",
          "name": "user",
          "type": "address"
        },
        {
          "internalType": "address",
          "name": "delegate",
          "type": "address"
        },
        {
          "internalType": "uint256",
          "name": "deadline",
          "type": "uint256"
        },
        {
          "internalType": "uint8",
          "name": "v",
          "type": "uint8"
        },
        {
          "internalType": "bytes32",
          "name": "r",
          "type": "bytes32"
        },
        {
          "internalType": "bytes32",
          "name": "s",
          "type": "bytes32"
        }
      ],
      "name": "addDelegateBySignature",
      "outputs": [],
      "stateMutability": "nonpayable",
      "type": "function"
    },
    {
      "inputs": [
        {
          "internalType": "address",
          "name": "",
          "type": "address"
        },
        {
          "internalType": "address",
          "name": "",
          "type": "address"
        }
      ],
      "name": "delegated",
      "outputs": [
        {
          "internalType": "bool",
          "name": "",
          "type": "bool"
        }
      ],
      "stateMutability": "view",
      "type": "function"
    },
    {
      "inputs": [
        {
          "internalType": "address",
          "name": "delegate",
          "type": "address"
        }
      ],
      "name": "revokeDelegate",
      "outputs": [],
      "stateMutability": "nonpayable",
      "type": "function"
    },
    {
      "inputs": [
        {
          "internalType": "address",
          "name": "",
          "type": "address"
        }
      ],
      "name": "signatureCount",
      "outputs": [
        {
          "internalType": "uint256",
          "name": "",
          "type": "uint256"
        }
      ],
      "stateMutability": "view",
      "type": "function"
    }
  ],
  "bytecode": "0x60c06040527f0d077601844dd17f704bafff948229d27f33b57445915754dfe3d095fda2beb760805234801561003457600080fd5b50604051469080605261092082396040805191829003605201822082820182526005835264165a595b1960da1b6020938401528151808301835260018152603160f81b908401528151808401919091527f0dc8618f4925c4319195a39ada16304f511bf885ff9f3d63bc6b0f3979e46fb6818301527fc89efdaa54c0f20c7adf612882df0950f5a951637e0307cdcb4c672f298b8bc6606082015260808101949094523060a08086019190915281518086038201815260c0909501909152835193909101929092209091525060805160a0516107f361012d6000398061030a52806104c852508061028a52806104fe52506107f36000f3fe608060405234801561001057600080fd5b506004361061007d5760003560e01c8063c0bd65d71161005b578063c0bd65d714610129578063e71bdf4114610131578063f6bcbd3114610164578063fa352c00146101b35761007d565b80631a28ff0514610082578063459e414f146100dc578063b5d832fe146100f6575b600080fd5b6100da600480360360c081101561009857600080fd5b5073ffffffffffffffffffffffffffffffffffffffff813581169160208101359091169060408101359060ff6060820135169060808101359060a001356101e6565b005b6100e46104c6565b60408051918252519081900360200190f35b6100e46004803603602081101561010c57600080fd5b503573ffffffffffffffffffffffffffffffffffffffff166104ea565b6100e46104fc565b6100da6004803603602081101561014757600080fd5b503573ffffffffffffffffffffffffffffffffffffffff16610520565b61019f6004803603604081101561017a57600080fd5b5073ffffffffffffffffffffffffffffffffffffffff8135811691602001351661052d565b604080519115158252519081900360200190f35b6100da600480360360208110156101c957600080fd5b503573ffffffffffffffffffffffffffffffffffffffff1661054d565b4284101561025557604080517f08c379a000000000000000000000000000000000000000000000000000000000815260206004820152601c60248201527f44656c656761626c653a205369676e6174757265206578706972656400000000604482015290519081900360640190fd5b73ffffffffffffffffffffffffffffffffffffffff8087166000818152602081815260408083208054600180820190925582517f00000000000000000000000000000000000000000000000000000000000000008186015280840196909652958b166060860152608085019590955260a08085018a90528151808603909101815260c0850182528051908301207f190100000000000000000000000000000000000000000000000000000000000060e08601527f000000000000000000000000000000000000000000000000000000000000000060e286015261010280860182905282518087039091018152610122860180845281519185019190912090859052610142860180845281905260ff8a1661016287015261018286018990526101a2860188905291519095919491926101c28084019391927fffffffffffffffffffffffffffffffffffffffffffffffffffffffffffffffe081019281900390910190855afa1580156103cb573d6000803e3d6000fd5b50506040517fffffffffffffffffffffffffffffffffffffffffffffffffffffffffffffffe0015191505073ffffffffffffffffffffffffffffffffffffffff81161580159061044657508873ffffffffffffffffffffffffffffffffffffffff168173ffffffffffffffffffffffffffffffffffffffff16145b6104b157604080517f08c379a000000000000000000000000000000000000000000000000000000000815260206004820152601c60248201527f44656c656761626c653a20496e76616c6964207369676e617475726500000000604482015290519081900360640190fd5b6104bb8989610557565b505050505050505050565b7f000000000000000000000000000000000000000000000000000000000000000081565b60006020819052908152604090205481565b7f000000000000000000000000000000000000000000000000000000000000000081565b61052a3382610557565b50565b600160209081526000928352604080842090915290825290205460ff1681565b61052a338261068d565b73ffffffffffffffffffffffffffffffffffffffff80831660009081526001602090815260408083209385168352929052205460ff16156105f957604080517f08c379a000000000000000000000000000000000000000000000000000000000815260206004820152601c60248201527f44656c656761626c653a20416c72656164792064656c65676174656400000000604482015290519081900360640190fd5b73ffffffffffffffffffffffffffffffffffffffff80831660008181526001602081815260408084209587168085529582529283902080547fffffffffffffffffffffffffffffffffffffffffffffffffffffffffffffff001683179055825191825291517f045b0fef01772d2fbba53dbd38c9777806eac0865b00af43abcfbcaf50da9206929181900390910190a35050565b73ffffffffffffffffffffffffffffffffffffffff80831660009081526001602090815260408083209385168352929052205460ff1661072e57604080517f08c379a000000000000000000000000000000000000000000000000000000000815260206004820152601e60248201527f44656c656761626c653a20416c726561647920756e64656c6567617465640000604482015290519081900360640190fd5b73ffffffffffffffffffffffffffffffffffffffff808316600081815260016020908152604080832094861680845294825280832080547fffffffffffffffffffffffffffffffffffffffffffffffffffffffffffffff001690558051928352517f045b0fef01772d2fbba53dbd38c9777806eac0865b00af43abcfbcaf50da92069281900390910190a3505056fea2646970667358221220f386bfca889b7aed65a989609febb0a860a1e83228af02a06ded6f8debf5e1cf64736f6c634300060a0033454950373132446f6d61696e28737472696e67206e616d652c737472696e672076657273696f6e2c75696e7432353620636861696e49642c6164647265737320766572696679696e67436f6e747261637429",
  "linkReferences": {},
  "deployedLinkReferences": {}
}